:020000040800F2
:100000003804002001010008790700089B0300085C
:100010007507000849010008510B000800000000A6
:10002000000000000000000000000000910800082F
:100030004D010008000000007B0700087D09000852
:100040001B0100081B0100081B0100081B01000820
:100050001B0100081B0100081B0100081B01000810
:100060001B0100081B0100081B0100081B01000800
:100070001B0100081B0100081B0100081B010008F0
:100080001B0100081B0100081B0100081B010008E0
:100090001B0100081B0100081B0100081B010008D0
:1000A0001B0100081B0100081B0100081B010008C0
:1000B0001B0100081B0100081B0100081B010008B0
:1000C0001B0100081B0100081B0100081B010008A0
:1000D0001B0100081B0100081B0100081B01000890
:1000E000F90100081B0100081B010008DFF80CD013
:1000F00000F018F800480047750B0008380400208D
:100100000648804706480047FEE7FEE7FEE7FEE7B1
:10011000FEE7FEE7FEE7FEE7FEE7FEE781090008EF
:10012000ED000008064C074D06E0E06840F00103D2
:1001300094E8070098471034AC42F6D3FFF7DAFF93
:10014000B00B0008D00B000800BFFEE7704710B5E9
:10015000044603E04FF47A7000F006F8201EA4F184
:100160000104F7D110BD000070B503461E480068B9
:100170001E4AB0FBF2F1B1F1807F00D31DE021F007
:100180007F40401E4FF0E022506150170F220028A0
:1001900007DA1407260E164C00F00F052D1F6655C2
:1001A00003E01407250E134C255400BF00204FF028
:1001B000E02290610720106100BF002008E000BF2E
:1001C0004FF0E021096901F480310029F8D0401C8A
:1001D0009842F4D34FF0E020006920F001004FF086
:1001E000E021086170BD00000000002040420F00C7
:1001F00018ED00E000E400E010B54FF4804000F09E
:1002000017F801280AD18103054800F0B0F808B9B1
:1002100000F0A0FA4FF4804000F004F810BD000098
:1002200000100140014908607047000014040140BB
:10023000014600200022074B1B6803EA0102054B20
:1002400014331B680B4013B10AB1012000E00020F9
:1002500070470000000401402DE9F04102460025EE
:100260000026002000230024002791F803C00CF092
:100270000F0591F803C00CF0100CBCF1000F03D077
:1002800091F802C04CEA050591F800C0BCF1000FDE
:1002900031D0146800202BE04FF0010C0CFA00F371
:1002A000B1F800C00CEA03069E4220D183004FF053
:1002B0000F0C0CFA03F7BC4305FA03FC4CEA0404E8
:1002C00091F803C0BCF1280F06D14FF0010C0CFAD5
:1002D00000FCC2F814C00AE091F803C0BCF1480F5A
:1002E00005D14FF0010C0CFA00FCC2F810C0401C04
:1002F0000828D1D31460B1F800C0BCF1FF0F34DD81
:10030000546800202EE000F1080C4FF0010808FAB4
:100310000CF3B1F800C00CEA03069E4221D1830021
:100320004FF00F0C0CFA03F7BC4305FA03FC4CEA40
:10033000040491F803C0BCF1280F05D100F1080CAA
:1003400008FA0CF8C2F8148091F803C0BCF1480F09
:1003500007D100F1080C4FF0010808FA0CF8C2F8B8
:100360001080401C0828CED35460BDE8F0810246BE
:10037000002093680B400BB1012000E00020704783
:1003800002460020D3680B400BB1012000E00020A2
:100390007047416170470161704700BFFEE721B1BE
:1003A000028842F48062028004E002884FF6FF3344
:1003B0001A400280704770B50246002400250023D1
:1003C0000020958A138B1B0445EA030626F07F4420
:1003D00004EA01068E4201D1012000E0002070BD38
:1003E00021B1028842F00102028004E002884FF647
:1003F000FE731A400280704770B506460D461446DB
:100400000121274800F0D8F800BF26492448FFF70B
:10041000D2FF0028F9D00022A021214800F05EF987
:1004200000BF21491E48FFF7C6FF0028F9D001216F
:100430001B4800F0C1F800BF1A491948FFF7BBFF7D
:100440000028F9D00122A021154800F047F900BF8B
:100450001449491C1248FFF7AEFF0028F8D014E0F9
:10046000012C03D100210E48FFF799FF00BF0D4971
:100470003F310B48FFF79FFF0028F8D0084800F0F5
:1004800029F928706D1C601EC4B2002CE8D101212E
:10049000034800F09DF801210148FFF780FF70BD7F
:1004A00000540040010003008200070070B50446BC
:1004B0000D460121194800F07FF800BF1849174880
:1004C000FFF779FF0028F9D00022A021134800F09F
:1004D00005F900BF13491148FFF76DFF0028F9D057
:1004E00021460E4800F003F900BF0E49891C0B4855
:1004F000FFF761FF0028F8D02946084800F0F7F818
:1005000000BF0849891C0548FFF755FF0028F8D0AF
:100510000121024800F05CF870BD0000005400406A
:10052000010003008200070000B585B001214805E5
:1005300000F024F90121082000F030F94020ADF846
:10054000100003208DF812001C208DF8130004A960
:100550001648FFF781FE8020ADF8100003208DF8CB
:1005600012001C208DF8130004A91048FFF774FE38
:100570004FF48060ADF80A000020ADF804004BF69F
:10058000FF70ADF806000A20ADF808004FF4804077
:10059000ADF80C00064800906946064800F024F8C3
:1005A00001210448FFF71CFF05B000BD000C01400D
:1005B000801A06000054004021B1028842F4807283
:1005C000028004E002884FF6FF631A400280704701
:1005D00021B1028842F40072028004E002884FF6E2
:1005E000FF531A40028070472DE9F04385B004465E
:1005F0000D460026B1460427DFF8CC80A6884FF6CA
:10060000C0700640684600F0D9F8DDF808802F4831
:10061000B8FBF0F01FFA80F946EA0906A6802088A8
:100620004FF6FE710840208000262949286888423C
:100630000CD828684000B8FBF0F087B2042F00DA2D
:1006400004273E4309F10100208427E0E8884BF6A7
:10065000FF71884206D1286800EB4000B8FBF0F03B
:1006600087B209E0286800EBC00101EB0010B8FB7D
:10067000F0F087B247F48047C7F30B0008B947F0A2
:10068000010747F4004006434FF4967009FB00F061
:100690004FF47A7190FBF1F0401C2084A6832088EF
:1006A00040F00100208026884FF6F5300640A888EB
:1006B0006989084306432680A8892989084320813F
:1006C00005B0BDE8F083000000127A0040420F0040
:1006D000A08601000146088AC0B2704712B141F0FD
:1006E000010102E04FF6FE7319400182704701825A
:1006F0007047000008B50121102000F04FF84FF4BA
:100700000050ADF8000010208DF8030003208DF894
:1007100002004FF400510448FFF73DFE69460248CD
:10072000FFF79AFD08BD00000010014010B54FF41E
:1007300000510248FFF72FFE10BD000000100140DD
:1007400010B54FF400510248FFF723FE10BD000022
:100750000010014010B54FF400510548FFF710FE9E
:1007600010B9FFF7E3FF01E0FFF7EAFF10BD00005B
:100770000010014000BFFEE77047704729B1064AEC
:10078000D2690243044BDA6104E0034AD26982432E
:10079000014BDA61704700000010024029B1064A9F
:1007A00092690243044B9A6104E0034A92698243CE
:1007B000014B9A61704700000010024030B50021E3
:1007C0000022002400232D4D6D6805F00C0121B19D
:1007D000042905D0082923D105E0294D056022E030
:1007E000274D05601FE0254D6D6805F47012234DFF
:1007F0006D6805F48034022505EB92421CB9214D49
:10080000554305600BE01D4D6D6805F400351DB1C5
:100810001C4D5543056002E0194D5543056002E04B
:10082000174D056000BF00BF144D6D6805F0F00165
:100830000909154D6B5C0568DD4045600F4D6D681D
:1008400005F4E061090A104D6B5C4568DD40856088
:100850000A4D6D6805F46051C90A0B4D6B5C456823
:10086000DD40C560054D6D6805F44041890B074DBD
:100870006B5CC568B5FBF3F5056130BD0010024047
:1008800000127A0000093D0014000020240000201E
:10089000704710B500F002F810BD00000CB5002044
:1008A000019000903348006840F48030314908607E
:1008B00000BF3048006800F4003000900198401CF0
:1008C0000190009818B90198B0F5A06FF1D12948AE
:1008D000006800F4003010B10120009001E0002019
:1008E00000900098012843D12348006840F0100090
:1008F000214908600846006820F0070008600846A3
:10090000006840F0020008601A48406819494860D1
:100910000846406848600846406840F48060486087
:100920000846406820F47C1048600846406840F45F
:10093000E81048600846006840F08070086000BF1A
:100940000C48006800F000700028F9D009484068A1
:1009500020F00300074948600846406840F0020064
:10096000486000BF0348406800F00C000828F9D137
:100970000CBD000000100240002002407047000043
:1009800010B51348006840F001001149086008469E
:100990004068104908400E494860084600680E4902
:1009A00008400B4908600846006820F48020086071
:1009B0000846406820F4FE0048604FF41F0088603D
:1009C000FFF767FF4FF000600449086010BD0000AA
:1009D000001002400000FFF8FFFFF6FE08ED00E007
:1009E00021B1828942F40052828104E082894DF66D
:1009F000FF731A408281704700B585B00121042041
:100A0000FFF7CCFE01218803FFF7C8FE4FF400700A
:100A1000ADF8100018208DF8130003208DF8120097
:100A200004A91348FFF718FC4FF48060ADF81000DC
:100A300004208DF8130004A90D48FFF70DFC4FF4B6
:100A4000E13000900020ADF80400ADF80600ADF8EC
:100A50000800ADF80C000C20ADF80A006946054806
:100A600000F00AF801210348FFF7BAFF05B000BD06
:100A700000080140003801402DE9F04786B00546E6
:100A80000E460024A24600BFA1460027B08900B14F
:100A900000BF2F462C8A4CF6FF700440F0880443B8
:100AA0002C82AC894EF6F3100440B088318908439B
:100AB000718908430443AC81AC8A4FF6FF4004407F
:100AC000B0890443AC8201A8FFF778FE1F48874233
:100AD00002D1DDF810A001E0DDF80CA0A88900F437
:100AE000004040B10AEBCA0000EB0A10316849002F
:100AF000B0FBF1F807E00AEBCA0000EB0A1031681E
:100B00008900B0FBF1F86420B8FBF0F00401200983
:100B1000642101FB1089A88900F4004040B1322013
:100B200000EBC900B0FBF1F000F00700044308E05F
:100B3000322000EB09106421B0FBF1F000F00F004F
:100B400004432C8106B0BDE8F08700000038014066
:100B500000BFFEE702E008C8121F08C1002AFAD150
:100B600070477047002001E001C1121F002AFBD12D
:100B700070470000FFF7BEFDFFF73EFFFFF7D4FC14
:100B800055210B20FFF792FC012208490B20FFF7AB
:100B900033FC09E0FFF7D4FD6420FFF7D8FAFFF734
:100BA000C5FD6420FFF7D3FAF4E700002800002019
:100BB000D00B00080000002028000000540B0008A3
:100BC000F80B00082800002010040000640B000847
:100BD00000A24A040000000000000000010203041B
:100BE00006070809000000000102030401020304D3
:080BF0000607080902040608CB
:04000005080000ED02
:00000001FF
