:020000040800F2
:100000002004002001010008ED0200089902000808
:10001000E902000875010008B708000800000000A8
:10002000000000000000000000000000E5030008E0
:100030007901000800000000EF0200083D060008FA
:100040001B0100081B0100081B0100081B01000820
:100050001B0100081B0100081B0100081B01000810
:100060001B0100081B0100081B0100081B01000800
:100070001B0100081B0100081B0100081B010008F0
:100080001B0100081B0100081B0100081B010008E0
:100090001B0100081B0100081B0100081B010008D0
:1000A0001B0100081B0100081B0100081B010008C0
:1000B0001B0100081B0100081B0100081B010008B0
:1000C0001B0100081B0100081B0100081B010008A0
:1000D0001B010008A10600081B0100081B01000805
:1000E0001B0100081B0100081B010008DFF80CD0F1
:1000F00000F02EF800480047FD0A00082004002008
:100100000648804706480047FEE7FEE7FEE7FEE7B1
:10011000FEE7FEE7FEE7FEE7FEE7FEE74106000832
:10012000ED00000830B50B460146002020220124D6
:1001300009E021FA02F59D4205D303FA02F5491BB5
:1001400004FA02F52844151EA2F10102F1DC30BDCB
:10015000064C074D06E0E06840F0010394E8070014
:1001600098471034AC42F6D3FFF7C4FF500B000899
:10017000700B000800BFFEE770472DE9F041024612
:1001800000250026002000230024002791F803C04A
:100190000CF00F0591F803C00CF0100CBCF1000F2F
:1001A00003D091F802C04CEA050591F800C0BCF1FB
:1001B000000F31D0146800202BE04FF0010C0CFA36
:1001C00000F3B1F800C00CEA03069E4220D1830080
:1001D0004FF00F0C0CFA03F7BC4305FA03FC4CEA92
:1001E000040491F803C0BCF1280F06D14FF0010CB4
:1001F0000CFA00FCC2F814C00AE091F803C0BCF18C
:10020000480F05D14FF0010C0CFA00FCC2F810C0E9
:10021000401C0828D1D31460B1F800C0BCF1FF0F16
:1002200034DD546800202EE000F1080C4FF0010886
:1002300008FA0CF3B1F800C00CEA03069E4221D183
:1002400083004FF00F0C0CFA03F7BC4305FA03FCD4
:100250004CEA040491F803C0BCF1280F05D100F169
:10026000080C08FA0CF8C2F8148091F803C0BCF12D
:10027000480F07D100F1080C4FF0010808FA0CF8FC
:10028000C2F81080401C0828CED35460BDE8F0812D
:10029000416170470161704700BFFEE710B5012161
:1002A0000148FFF7F7FF10BD0010014010B5012114
:1002B0000148FFF7EDFF10BD0010014008B5012116
:1002C000102000F015F80120ADF8000010208DF886
:1002D000030003208DF8020069460248FFF74DFF36
:1002E00008BD00000010014000BFFEE770477047E6
:1002F00029B1064A92690243044B9A6104E0034A19
:1003000092698243014B9A617047000000100240DD
:1003100030B500210022002400232D4D6D6805F02A
:100320000C0121B1042905D0082923D105E0294D6C
:10033000056022E0274D05601FE0254D6D6805F43E
:100340007012234D6D6805F48034022505EB92424E
:100350001CB9214D554305600BE01D4D6D6805F43A
:1003600000351DB11C4D5543056002E0194D554344
:10037000056002E0174D056000BF00BF144D6D68B9
:1003800005F0F0010909154D6B5C0568DD4045601D
:100390000F4D6D6805F4E061090A104D6B5C45680E
:1003A000DD4085600A4D6D6805F46051C90A0B4D4A
:1003B0006B5C4568DD40C560054D6D6805F44041E6
:1003C000890B074D6B5CC568B5FBF3F5056130BD66
:1003D0000010024000127A0000093D0000000020D9
:1003E00010000020704710B500F002F810BD0000AA
:1003F0000CB50020019000903348006840F4803034
:100400003149086000BF3048006800F400300090B7
:100410000198401C0190009818B90198B0F5A06FA0
:10042000F1D12948006800F4003010B1012000909B
:1004300001E0002000900098012843D12348006883
:1004400040F01000214908600846006820F00700CD
:1004500008600846006840F0020008601A484068DA
:10046000194948600846406848600846406840F4BA
:10047000806048600846406820F47C104860084668
:10048000406840F4E81048600846006840F080701A
:10049000086000BF0C48006800F000700028F9D028
:1004A0000948406820F00300074948600846406852
:1004B00040F00200486000BF0348406800F00C00B4
:1004C0000828F9D10CBD00000010024000200240B5
:1004D00010B513A000F0F2F94FF4E1311CA000F0C8
:1004E000EDF923A000F0EAF92EA000F0E7F933A01F
:1004F00000F0E4F935A000F0E1F938A000F0DEF9F1
:100500003AA000F0DBF93DA000F0D8F93FA000F0E0
:10051000D5F942A000F0D2F944A000F0CFF910BD07
:100520000D0A20D5E2CAC7D2BBB8F6CDA8B9FDB432
:10053000AEBFDACDA8D0C5D6B8C1EEBFD8D6C652A8
:10054000474220B2CAB5C6CAB5D1E90A00000000C8
:10055000CAB9D3C3555341525420B2CECAFDCEAA14
:10056000A3BA256420382D4E2D31200A000000004A
:10057000BFAAB7A2B0E5BDD3B5BDD6B8C1EEBAF338
:10058000BFD8D6C652474220B2CAB5C6D1D5C9AB2C
:10059000A3ACD6B8C1EEB6D4D3A6C8E7CFC2A3BA2F
:1005A0000A00000020D6B8C1EE2D2D2D2D2D2D20B6
:1005B000B2CAB5C6D1D5C9AB0A0000002031202D82
:1005C0002D2D2D2D2D20BAEC0A0000002032202DDB
:1005D0002D2D2D2D2D20C2CC0A0000002033202DE2
:1005E0002D2D2D2D2D20C0B60A0000002034202DE9
:1005F0002D2D2D2D2D20BBC60A0000002035202DCD
:100600002D2D2D2D2D20D7CF0A0000002036202D96
:100610002D2D2D2D2D20C7E00A0000002037202D84
:100620002D2D2D2D2D20B0D70A0000002038202D93
:100630002D2D2D2D2D20C3F00A0000007047000045
:1006400010B51348006840F00100114908600846E1
:100650004068104908400E494860084600680E4945
:1006600008400B4908600846006820F480200860B4
:100670000846406820F4FE0048604FF41F00886080
:10068000FFF7B1FE4FF000600449086010BD0000A4
:10069000001002400000FFF8FFFFF6FE08ED00E04A
:1006A00010B540F22551064800F065F838B104480D
:1006B00000F0F8F8C4B22146014800F0F8F810BD87
:1006C0000038014021B1828942F40052828104E065
:1006D00082894DF6FF731A408281704700B585B05C
:1006E00001210420FFF704FE01218803FFF700FE2B
:1006F0004FF40070ADF8100018208DF8130003209F
:100700008DF8120004A91348FFF737FD4FF48060FD
:10071000ADF8100004208DF8130004A90D48FFF770
:100720002CFD4FF4E13000900020ADF80400ADF84E
:100730000600ADF80800ADF80C000C20ADF80A007A
:100740006946054800F042F801210348FFF7BAFF67
:1007500005B000BD000801400038014002460020FD
:10076000B1F5007F00D100BF13880B400BB1012011
:1007700000E00020704770B50246002400230025E9
:10078000002040F66A16B14200D100BFC1F3421505
:1007900001F01F03012606FA03F3012D02D1968909
:1007A000334006E0022D02D1168A334001E0968ADA
:1007B00033400C12012606FA04F41688344013B1B3
:1007C0000CB1012000E0002070BD00002DE9F047D1
:1007D00086B005460E460024A24600BFA14600276B
:1007E000B08900B100BF2F462C8A4CF6FF70044040
:1007F000F08804432C82AC894EF6F3100440B08894
:1008000031890843718908430443AC81AC8A4FF6AF
:10081000FF400440B0890443AC8201A8FFF778FD93
:100820001F48874202D1DDF810A001E0DDF80CA0DE
:10083000A88900F4004040B10AEBCA0000EB0A109E
:1008400031684900B0FBF1F807E00AEBCA0000EBA1
:100850000A1031688900B0FBF1F86420B8FBF0F0B1
:1008600004012009642101FB1089A88900F40040DB
:1008700040B1322000EBC900B0FBF1F000F00700FE
:10088000044308E0322000EB09106421B0FBF1F0D2
:1008900000F00F0004432C8106B0BDE8F087000093
:1008A0000038014001468888C0F308007047C1F352
:1008B00008028280704700BFFEE700000FB4054BBE
:1008C00010B503A9044A029800F018F810BC5DF8AE
:1008D00014FB0000D50A00081800002002E008C838
:1008E000121F08C1002AFAD170477047002001E0AA
:1008F00001C1121F002AFBD1704700002DE9FF4FF4
:100900008BB09A460F460546002606E025280BD0F8
:1009100052460D9990476D1C761C28780028F5D119
:100920000FB03046BDE8F08F0024A0460122604998
:1009300000E0044315F8013F203B02FA03F00842AF
:10094000F7D128782E2817D115F8010F44F00404A8
:100950002A280ED06FF02F022878A0F13001092943
:100960000AD808EB880102EB410100EB01086D1C7D
:10097000F2E757F8048B6D1C287869283ED006DC16
:100980000028CDD063280BD0642804D136E073282A
:1009900010D075284BD052460D999047761C85E0B3
:1009A00017F8040B8DF8000000208DF80100E946CF
:1009B000012003E057F8049B4FF0FF3061074FF030
:1009C000000401D40AE0641C44450DDA8442FADBD9
:1009D00019F804100029F6D106E0641C8442FCDBFF
:1009E00019F804100029F8D1264404E019F8010B85
:1009F00052460D999047641EF8D257E001CF4FF050
:100A00000A0B002802DA40422D2102E0210504D51C
:100A10002B218DF82410012103E0E10705D02021CE
:100A2000F7E70DF1200908910CE00021F9E701CF6B
:100A30004FF00A0BF9E75946FFF774FB01F130025A
:100A400009F8012D0028F6D1ADEB090000F1200BCB
:100A5000600701D44FF00108D84502DDA8EB0B0078
:100A600000E000208046002406E009A85246005D10
:100A70000D999047641C761C08988442F5DB04E0CD
:100A8000302052460D999047761CB8F10001A8F12C
:100A90000108F5DC05E019F8010B52460D99904765
:100AA000761CBBF10001ABF1010BF4DC6D1C34E7EB
:100AB0000928010010B5044600BF20210448FFF7B3
:100AC0004DFE0028F9D00248FFF7ECFE10BD0000F3
:100AD0000038014070B504460D46E1B20548FFF705
:100AE000E6FE00BF80210348FFF738FE0028F9D05A
:100AF000204670BD00380140FFF7DCBFFFF7DEFB8A
:100B0000FFF7ECFDFFF7E4FC16E00C48FFF7F4FFFD
:100B1000C4B221460AA0FFF7D1FE312C02D0322CFC
:100B200006D102E0FFF7C2FB05E0FFF7B7FB02E0EA
:100B3000FFF7CEFC00BF00BFE7E700001400002075
:100B4000BDD3CAD5B5BDD7D6B7FBA3BA25630A00B6
:100B5000700B0008000000201C000000DC080008EA
:100B60008C0B00081C00002004040000EC080008A6
:100B70000000000001020304010203040607080943
:0C0B800002040608000000000000000055
:04000005080000ED02
:00000001FF
